S01600004175746F6E6F6D6F75735F4361722E737265635F
S11300000C944F000C94BD000C946C000C946C0088
S11300100C946C000C946C000C946C000C946C00AC
S11300200C946C000C946C000C94AF050C94A6001A
S11300300C946C000C946C000C946C000C946C008C
S11300400C946C000C946C000C946C000C946C007C
S11300500C946C00CE05E505F605070618062C067B
S11300603D064E065F06730684069806A906BD067D
S1130070D106EC06F20A5D0BC80B6C077308DE08A8
S11300804909870A330C9E0C090DF307B4091C0AAD
S11300907F0D890D930D9D0DA70DB10DBB0D112481
S11300A01FBECFE5D8E0DEBFCDBF10E0A0E6B0E0D4
S11300B0E6E1FEE102C005900D92AA36B107D9F738
S11300C020E0AAE6B0E001C01D92AE37B207E1F726
S11300D00E946E000C94090F0C9400000E94A3046B
S11300E081B38B7F81BB8BB38E7F8BBB0E9441031B
S11300F00E9476010E94090180E00E946E050E9420
S1130100270380E00E94AB0463E080E00E94EA04DD
S11301100E94C1028BEB90E00E945D030E94BD022D
S113012080E690E00E94FF0161E081E00E94A50268
S11301300E94D0020E94370ECB010E94120261E09D
S113014082E00E94A5020E942201E2CF1F920F9238
S11301500FB60F9211248F939F9380917400909106
S11301607500019690937500809374009F918F9110
S11301700F900FBE0F901F9018951F920F920FB6FD
S11301800F9211242F933F934F935F936F937F9319
S11301908F939F93AF93BF93EF93FF9380917300DB
S11301A0811109C012BE62E00E94EA041092750037
S11301B01092740018C0809173008130A1F482B74A
S11301C090E09093720080937100809174009091FC
S11301D0750090936E0080936D0089B78E7F89BF00
S11301E08BB78F7B8BBF809173008F5F809373007D
S11301F0FF91EF91BF91AF919F918F917F916F91FB
S11302005F914F913F912F910F900FBE0F901F90D0
S1130210189584B3806484BB84B3806284BB84B344
S1130220806184BB84B3886084BB84B3816084BBF5
S113023084B3826084BB85B3816085BB85B38260EF
S113024085BB089585B38F7E85BB85B3886085BBE8
S113025085B38F7B85BB85B3806285BB0895CF93BF
S1130260C82F40E061E081E00E94F60340E062E0D4
S113027081E00E94F60340E063E081E00E94F6031F
S11302808BB39C2F907F8F70892B8BBB4FEF63E0D8
S113029081E00E94F6038FE99FE00197F1F700C027
S11302A0000040E063E081E00E94F60320E1C29F89
S11302B0C00111249BB39F70892B8BBB4FEF63E06C
S11302C081E00E94F6038FE99FE00197F1F700C0F7
S11302D0000040E063E081E00E94F6038FE19EE4C9
S11302E00197F1F700C00000CF9108954FEF61E04E
S11302F081E00E9460034FEF62E081E00E946003AE
S11303004FEF63E081E00E9460034FEF64E080E020
S11303100E9460034FEF65E080E00E9460034FEFAE
S113032066E080E00E9460034FEF67E080E00E9497
S113033060032FEF81EE94E0215080409040E1F77C
S113034000C0000083E30E942F0182E30E942F017A
S113035088E20E942F0181E00E942F0182E00E9426
S11303602F0186E00E942F018CE00E942F01089546
S1130370CF93C82F4FEF61E081E00E94F60340E085
S113038062E081E00E94F60340E063E081E00E94C5
S1130390F6038BB39C2F907F8F70892B8BBB4FEF11
S11303A063E081E00E94F6038FE99FE00197F1F793
S11303B000C0000040E063E081E00E94F60320E119
S11303C0C29FC00111249BB39F70892B8BBB4FEF3D
S11303D063E081E00E94F6038FE99FE00197F1F763
S11303E000C0000040E063E081E00E94F6038FE17A
S11303F09EE40197F1F700C00000CF9108950F9398
S11304001F93CF938C01C0E003C00E94B801CF5F5B
S1130410F801EC0FF11D80818111F7CFCF911F916D
S11304200F910895EF92FF920F931F93CF93DF9351
S11304307C01892B19F480E30E94B80101E010E0EB
S1130440C0E0D0E03FC0CE01880F991FCC0FDD1F64
S1130450CC0FDD1FCC0FDD1FC80FD91F9701ADECEA
S1130460BCEC0E94FA0E969587959695879596957D
S113047087959C01220F331F880F991F880F991F9E
S1130480880F991F820F931F9701281B390BC20FE6
S1130490D31F209759F4C801880F991F000F111F0B
S11304A0000F111F000F111F080F191F9701ADEC4A
S11304B0BCEC0E94FA0E7C01F694E794F694E7945F
S11304C0F694E794E114F10409F0BDCFE12CF12C8A
S11304D032C09E01ADECBCEC0E94FA0E9695879555
S11304E096958795969587959C01220F331F880FC3
S11304F0991F880F991F880F991F820F931F9E01C0
S1130500281B390BC901805D0E94B8019E01ADEC26
S1130510BCEC0E94FA0EEC01D695C795D695C7950A
S1130520D695C795209739F40A30110520F0E801D3
S1130530EE24E394F12CCE15DF0559F6DF91CF912B
S11305401F910F91FF90EF900895CF93DF9300D008
S1130550CDB7DEB790E8998390EC9A83E1E0F0E0C0
S1130560EC0FFD1FE80FF11D8081860F0E942F0103
S11305700F900F90DF91CF91089581E00E942F0199
S113058008958AB381608ABB00C08BB381608BBB42
S113059083E08A95F1F700008BB38E7F8BBB0895BF
S11305A08BB38E7F8BBB00C08BB381608BBB83E02E
S11305B08A95F1F700008BB38E7F8BBB809173001B
S11305C08230E1F51092730060916D0070916E00BD
S11305D0762F66278091710090917200680F791FC1
S11305E070937B0060937A0080E090E00E94660E36
S11305F02DEC3CE349E654E40E94C50D609376007B
S113060070937700809378009093790010926E0035
S113061010926D00109275001092740063E080E0F7
S11306200E94EA0488B7816088BF8AB780648ABF61
S113063089B7816089BF8BB780648BBF6091760076
S11306407091770080917800909179000895F894E2
S113065081B38B7F81BB8AB381608ABB12BE13BE18
S113066083B7816083BF85B7816085BF85B78260AA
S113067085BF8BB780648BBF89B7816089BF78944D
S1130680089581B3806281BB8DE00E94C20540E081
S113069069E08DE00E94E20682E00E94740D8FE31F
S11306A09CE990937D0080937C008CE987BD8091C8
S11306B07C0086BD1DBC1CBC08959BBD8ABD0895ED
S11306C0442321F04F3F09F44BC008956830C0F52E
S11306D0813091F028F08230D9F0833029F10895E7
S11306E02AB381E090E002C0880F991F6A95E2F76F
S11306F0809582238ABB089527B381E090E002C0ED
S1130700880F991F6A95E2F78095822387BB089525
S113071024B381E090E002C0880F991F6A95E2F744
S11307208095822384BB089521B381E090E002C0C8
S1130730880F991F6A95E2F78095822381BB0895FB
S1130740813041F028F0823039F0833039F0089557
S11307504ABB089547BB089544BB089541BB08951F
S11307606830A0F5813089F028F08230C9F08330F8
S113077011F108952AB381E090E002C0880F991F17
S11307806A95E2F7822B8ABB089527B381E090E053
S113079002C0880F991F6A95E2F7822B87BB0895E0
S11307A024B381E090E002C0880F991F6A95E2F7B4
S11307B0822B84BB089521B381E090E002C0880FAE
S11307C0991F6A95E2F7822B81BB0895813041F02D
S11307D028F0823039F0833039F008954ABB089507
S11307E047BB089544BB089541BB08951F93CF931D
S11307F0DF93C82F162FD42F442321F04F3F09F441
S113080052C09DC06830D8F54FEF0E946003C130DC
S113081091F028F0C230D9F0C33029F190C02BB345
S113082081E090E002C0880F991F1A95E2F7809545
S113083082238BBB84C028B381E090E002C0880F80
S1130840991F1A95E2F78095822388BB78C025B357
S113085081E090E002C0880F991F1A95E2F7809515
S1130860822385BB6CC022B381E090E002C0880F74
S1130870991F1A95E2F78095822382BB60C04FEFDF
S113088068E00E946003C13041F028F0C23039F0C2
S1130890C33039F054C0DBBB52C0D8BB50C0D5BB49
S11308A04EC0D2BB4CC06830B8F54FEF0E94600315
S11308B0C13089F028F0C230C9F0C33011F13FC013
S11308C02BB381E090E002C0880F991F1A95E2F7DC
S11308D0822B8BBB34C028B381E090E002C0880F28
S11308E0991F1A95E2F7822B88BB29C025B381E0B2
S11308F090E002C0880F991F1A95E2F7822B85BBFE
S11309001EC022B381E090E002C0880F991F1A959F
S1130910E2F7822B82BB13C04FEF68E00E946003B2
S1130920C13041F028F0C23039F0C33039F007C08B
S1130930DBBB05C0D8BB03C0D5BB01C0D2BBDF91B4
S1130940CF911F9108958FB780688FBF08958FB797
S11309508F778FBF08958330C8F58130A9F018F0E0
S1130960823019F135C040E062E083E00E94600308
S11309704FEF62E083E00E94F6030E94A3048BB76A
S113098080648BBF81E0089540E063E083E00E94CF
S113099060034FEF63E083E00E94F6030E94A30428
S11309A08BB780688BBF81E0089540E062E081E00E
S11309B00E9460034FEF62E081E00E94F6030E9410
S11309C0A3048BB780628BBF81E0089580E0089513
S11309D081E00895833008F075C0643008F074C075
S11309E0813069F120F0823009F451C06FC0613068
S11309F071F028F0623099F06330C9F069C085B7AE
S1130A00877F85BF85B78B7F85BF81E0089585B7D4
S1130A10877F85BF85B7846085BF81E0089585B7EA
S1130A20886085BF85B78B7F85BF81E0089585B7D2
S1130A30886085BF85B7846085BF81E00895613093
S1130A4071F028F0623099F06330C9F043C085B783
S1130A508D7F85BF85B78E7F85BF81E0089585B77B
S1130A608D7F85BF85B7816085BF81E0089585B797
S1130A70826085BF85B78E7F85BF81E0089585B785
S1130A80826085BF85B78E7F85BF81E0089562301F
S1130A9019F0633061F020C08BB78F7D8BBF84B7B2
S1130AA08F7B84BF8BB780628BBF81E008958BB747
S1130AB08F7D8BBF84B7806484BF8BB780628BBF0C
S1130AC081E0089580E0089580E0089581E008952C
S1130AD081E0089581E0089580E0089513BE813097
S1130AE0D1F028F0823011F1833071F108950E9421
S1130AF0A70483B78F7B83BF83B7877F83BF83B705
S1130B008F7E83BF83B78F7D83BF89B7816089BFA1
S1130B100E94A30408950E94A70483B7806483BF3E
S1130B2083B7877F83BF0E94A30408950E94A7040C
S1130B3083B78F7B83BF83B7886083BF89B78260A5
S1130B4089BF0E94A30408950E94A70483B7806408
S1130B5083BF83B7886083BF0E94A30408951F9254
S1130B600F920FB60F9211248F9380916B00809394
S1130B706A00811110926A008F910F900FBE0F903E
S1130B801F9018951EBC1FBC90E08F30910508F093
S1130B9018C1FC01E65DFF4F0C94F40E0E94A704FB
S1130BA089B7846089BF8EB58F7E8EBD8EB5877FF1
S1130BB08EBD8FB58D7F8FBD8FB58E7F8FBD89B76D
S1130BC0846089BF0E94A30408950E94A7048EB57F
S1130BD08F7E8EBD8EB5877F8EBD8FB58D7F8FBD89
S1130BE08FB581608FBD0E94A30408950E94A7045D
S1130BF08EB58F7E8EBD8EB5877F8EBD8FB582609C
S1130C008FBD8FB58E7F8FBD0E94A30408950E946F
S1130C10A7048EB58F7E8EBD8EB5877F8EBD8FB5B2
S1130C2082608FBD8FB581608FBD0E94A30408953B
S1130C300E94A7048EB58F7E8EBD8EB588608EBD52
S1130C408FB58D7F8FBD8FB58E7F8FBD89B7806146
S1130C5089BF0E94A30408950E94A7048EB58F7EC5
S1130C608EBD8EB588608EBD8FB58D7F8FBD8FB5DF
S1130C7081608FBD0E94A30408950E94A7048EB5CD
S1130C808F7E8EBD8EB588608EBD8FB582608FBD20
S1130C908FB58E7F8FBD0E94A30408950E94A70480
S1130CA08EB58F7E8EBD8EB588608EBD8FB5826009
S1130CB08FBD8FB581608FBD0E94A30408950E94EB
S1130CC0A70489B7806289BF8EB580618EBD8EB559
S1130CD0877F8EBD8FB58D7F8FBD8FB58E7F8FBD86
S1130CE00E94A30408950E94A7048EB580618EBD5E
S1130CF08EB5877F8EBD8FB58D7F8FBD8FB581609B
S1130D008FBD0E94A30408950E94A70489B780623E
S1130D1089BF8EB580618EBD8EB5877F8EBD8FB540
S1130D2082608FBD8FB58E7F8FBD0E94A30408950E
S1130D300E94A7048EB580618EBD8EB5877F8EBD5F
S1130D408FB582608FBD8FB581608FBD0E94A30473
S1130D5008950E94A7048EB580618EBD8EB588600B
S1130D608EBD8FB58D7F8FBD8FB58E7F8FBD89B7BB
S1130D70806289BF0E94A30408950E94A70489B7D2
S1130D80806289BF8EB580618EBD8EB588608EBD50
S1130D908FB582608FBD8FB58E7F8FBD0E94A304F7
S1130DA008950E94A7048EB580618EBD8EB58860BB
S1130DB08EBD8FB582608FBD8FB581608FBD0E945F
S1130DC0A304089590E08F30910508F08CC6FC01CF
S1130DD0E75CFF4F0C94F40E442319F04130E9F121
S1130DE00895613069F028F06530B9F0673029F171
S1130DF008958FB58F778FBD8FB58F7B8FBD089585
S1130E0081B3806281BB8FB588608FBD8FB58F77CA
S1130E108FBD8FB580648FBD08958FB588608FBDF9
S1130E2081B3806281BB82B38F7D82BB8FB58068C2
S1130E308FBD8FB58F7B8FBD08958FB588608FBDB3
S1130E4081B3806281BB82B3806282BB8FB58068CC
S1130E508FBD8FB580648FBD0895623081F018F422
S1130E60662331F008956630B9F0683029F10895A9
S1130E708FB58F7D8FBD8FB58F7E8FBD08958FB554
S1130E8084608FBD81B3806181BB8FB58F7D8FBD41
S1130E908FB580618FBD08958FB584608FBD81B398
S1130EA0806181BB82B38F7E82BB8FB580628FBD30
S1130EB08FB58F7E8FBD08958FB584608FBD81B34C
S1130EC0806181BB82B3806182BB8FB580628FBD3C
S1130ED08FB580618FBD0895442321F0413009F41A
S1130EE040C0089589B7806189BF613069F028F0F6
S1130EF06530B9F0673029F108958FB58F778FBDCC
S1130F008FB58F7B8FBD08958FB588608FBD81B3FA
S1130F10806281BB8FB58F778FBD8FB580648FBDA5
S1130F2008958FB588608FBD81B3806281BB82B321
S1130F308F7D82BB8FB580688FBD8FB58F7B8FBD52
S1130F4008958FB588608FBD81B3806281BB82B301
S1130F50806282BB8FB580688FBD8FB580648FBD82
S1130F60089589B7886089BF623081F018F46623D8
S1130F7031F008956630B9F0683029F108958FB5DD
S1130F808F7D8FBD8FB58F7E8FBD08958FB58460A3
S1130F908FBD81B3806181BB8FB58F7D8FBD8FB5D0
S1130FA080618FBD08958FB584608FBD81B38061EA
S1130FB081BB82B38F7E82BB8FB580628FBD8FB5BC
S1130FC08F7E8FBD08958FB584608FBD81B380619E
S1130FD081BB82B3806182BB8FB580628FBD8FB5C8
S1130FE080618FBD0895442319F04130E9F10895DB
S1130FF0613069F028F06530B9F0673029F108955F
S11310008FB58F778FBD8FB58F7B8FBD089581B3DB
S1131010806281BB8FB588608FBD8FB58F778FBDA0
S11310208FB580648FBD089581B3806281BB82B324
S11310308F7D82BB8FB588608FBD8FB580688FBD73
S11310408FB58F7B8FBD089581B3806281BB82B3DE
S1131050806282BB8FB588608FBD8FB580688FBD7D
S11310608FB580648FBD0895623081F018F46623D3
S113107031F008956630B9F0683029F108958FB5DC
S11310808F7D8FBD8FB58F7E8FBD089581B38061B5
S113109081BB8FB584608FBD8FB58F7D8FBD8FB5BC
S11310A080618FBD089581B3806181BB82B38F7EDF
S11310B082BB8FB584608FBD8FB580628FBD8FB5C5
S11310C08F7E8FBD089581B3806181BB82B38061BF
S11310D082BB8FB584608FBD8FB580628FBD8FB5A5
S11310E080618FBD0895442319F04130A1F1089522
S11310F0633081F018F4662331F008956930B9F053
S11311006B30F9F008958FB58F778FBD8FB58F7BD6
S11311108FBD089581B3806281BB81B38F7E81BB13
S11311208FB58F778FBD8FB580648FBD089581B3E0
S1131130806281BB8FB580688FBD8FB58F7B8FBD7B
S1131140089581B3806281BB8FB580688FBD8FB5F0
S113115080648FBD0895643081F018F4662331F003
S113116008956A30B9F06C30F9F008958FB58F7D29
S11311708FBD8FB58F7E8FBD089581B3806181BB94
S113118081B38F7D81BB8FB58F7D8FBD8FB580611E
S11311908FBD089581B3806181BB8FB580628FBD9F
S11311A08FB58F7E8FBD089581B3806181BB8FB56C
S11311B080628FBD8FB580618FBD0895442319F07F
S11311C04130A1F10895633081F018F4662331F0C1
S11311D008956930B9F06B30F9F008958FB58F77C1
S11311E08FBD8FB58F7B8FBD089581B3806281BB26
S11311F081B38F7E81BB8FB58F778FBD8FB58064B0
S11312008FBD089581B3806281BB8FB580688FBD27
S11312108FB58F7B8FBD089581B3806281BB8FB5FD
S113122080688FBD8FB580648FBD0895643081F070
S113123018F4662331F008956A30B9F06C30F9F08F
S113124008958FB58F7D8FBD8FB58F7E8FBD089527
S113125081B3806181BB81B38F7D81BB8FB58F7D6D
S11312608FBD8FB580618FBD089581B3806181BBCF
S11312708FB580628FBD8FB58F7E8FBD089581B38A
S1131280806181BB8FB580628FBD8FB580618FBD5A
S11312900895442319F04130A1F10895633081F099
S11312A018F4662331F008956930B9F06B30F9F021
S11312B008958FB58F778FBD8FB58F7B8FBD0895C0
S11312C081B3806281BB81B38F7E81BB8FB58F7701
S11312D08FBD8FB580648FBD089581B3806281BB5B
S11312E08FB580688FBD8FB58F7B8FBD089581B317
S11312F0806281BB8FB580688FBD8FB580648FBDE0
S11313000895643081F018F4662331F008956A304A
S1131310B9F06C30F9F008958FB58F7D8FBD8FB51E
S11313208F7E8FBD089581B3806181BB81B38F7D32
S113133081BB8FB58F7D8FBD8FB580618FBD0895C3
S113134081B3806181BB8FB580628FBD8FB58F7E85
S11313508FBD089581B3806181BB8FB580628FBDDD
S11313608FB580618FBD0895442319F0413089F110
S11313700895633081F018F4662331F008956930DC
S1131380B9F06B30E1F008958FB58F778FBD8FB5CD
S11313908F7B8FBD089581B3806281BB81B38F7EC3
S11313A081BB8FB58F778FBD8FB580648FBD089556
S11313B08FB580688FBD8FB58F7B8FBD089581B346
S11313C0806281BB8FB580688FBD8FB580648FBD0F
S11313D00895643081F018F4662331F008956A307A
S11313E0B9F06C30F9F008958FB58F7D8FBD8FB54E
S11313F08F7E8FBD089581B3806181BB81B38F7D62
S113140081BB8FB58F7D8FBD8FB580618FBD0895F2
S113141081B3806181BB8FB580628FBD8FB58F7EB4
S11314208FBD089581B3806181BB8FB580628FBD0C
S11314308FB580618FBD0895442319F04130A1F127
S11314400895633081F018F4662331F0089569300B
S1131450B9F06B30F9F008958FB58F778FBD8FB5E4
S11314608F7B8FBD089581B3806281BB81B38F7EF2
S113147081BB8FB58F778FBD8FB580648FBD089585
S113148081B3806281BB8FB580688FBD8FB58F7B40
S11314908FBD089581B3806281BB8FB580688FBD95
S11314A08FB580648FBD0895643081F018F466238D
S11314B031F008956A30B9F06C30F9F008958FB5C1
S11314C08F7D8FBD8FB58F7E8FBD089581B3806171
S11314D081BB81B38F7D81BB8FB58F7D8FBD8FB570
S11314E080618FBD089581B3806181BB8FB58062B7
S11314F08FBD8FB58F7E8FBD089581B3806181BB11
S11315008FB580628FBD8FB580618FBD08954423F0
S113151019F04130A1F10895633081F018F4662385
S113152031F008956D30B9F06F30F9F008958FB54A
S11315308F778FBD8FB58F7B8FBD089581B3806208
S113154081BB81B38F7E81BB8FB58F778FBD8FB504
S113155080648FBD089581B3806281BB8FB580683C
S11315608FBD8FB58F7B8FBD089581B3806281BBA2
S11315708FB580688FBD8FB580648FBD089564304A
S113158081F018F4662331F008956E30B9F06031BB
S1131590F9F008958FB58F7D8FBD8FB58F7E8FBD88
S11315A0089581B3806181BB81B38F7D81BB8FB589
S11315B08F7D8FBD8FB580618FBD089581B38061AC
S11315C081BB8FB580628FBD8FB58F7E8FBD08952F
S11315D081B3806181BB8FB580628FBD8FB580611F
S11315E08FBD0895442319F04130A1F1089563306B
S11315F081F018F4662331F008956D30B9F06F303E
S1131600F9F008958FB58F778FBD8FB58F7B8FBD20
S1131610089581B3806281BB81B38F7E81BB8FB516
S11316208F778FBD8FB580648FBD089581B380623D
S113163081BB8FB580688FBD8FB58F7B8FBD0895BB
S113164081B3806281BB8FB580688FBD8FB58064A4
S11316508FBD0895643081F018F4662331F0089545
S11316606E30B9F06031F9F008958FB58F7D8FBD7C
S11316708FB58F7E8FBD089581B3806181BB81B3A7
S11316808F7D81BB8FB58F7D8FBD8FB580618FBD01
S1131690089581B3806181BB8FB580628FBD8FB5A2
S11316A08F7E8FBD089581B3806181BB8FB58062C9
S11316B08FBD8FB580618FBD0895442319F04130EB
S11316C0A1F10895633081F018F4662331F0089590
S11316D06D30B9F06F30F9F008958FB58F778FBD05
S11316E08FB58F7B8FBD089581B3806281BB81B339
S11316F08F7E81BB8FB58F778FBD8FB580648FBD93
S1131700089581B3806281BB8FB580688FBD8FB52A
S11317108F7B8FBD089581B3806281BB8FB5806854
S11317208FBD8FB580648FBD0895643081F018F447
S1131730662331F008956E30B9F06031F9F0089500
S11317408FB58F7D8FBD8FB58F7E8FBD089581B38B
S1131750806181BB81B38F7D81BB8FB58F7D8FBD50
S11317608FB580618FBD089581B3806181BB8FB5D2
S113177080628FBD8FB58F7E8FBD089581B38061E8
S113178081BB8FB580628FBD8FB580618FBD089599
S1131790442319F04130A1F10895633081F018F425
S11317A0662331F008956D30B9F06F30F9F0089583
S11317B08FB58F778FBD8FB58F7B8FBD089581B324
S11317C0806281BB81B38F7E81BB8FB58F778FBDE4
S11317D08FB580648FBD089581B3806281BB8FB55E
S11317E080688FBD8FB58F7B8FBD089581B3806274
S11317F081BB8FB580688FBD8FB580648FBD089520
S1131800643081F018F4662331F008956E30B9F035
S11318106031F9F008958FB58F7D8FBD8FB58F7EC0
S11318208FBD089581B3806181BB81B38F7D81BBFE
S11318308FB58F7D8FBD8FB580618FBD089581B3C6
S1131840806181BB8FB580628FBD8FB58F7E8FBD68
S1131850089581B3806181BB8FB580628FBD8FB5E0
S113186080618FBD0895442319F04130A1F108959A
S1131870633081F018F4662331F008956D30B9F0C7
S11318806F30F9F008958FB58F778FBD8FB58F7B4B
S11318908FBD089581B3806281BB81B38F7E81BB8C
S11318A08FB58F778FBD8FB580648FBD089581B359
S11318B0806281BB8FB580688FBD8FB58F7B8FBDF4
S11318C0089581B3806281BB8FB580688FBD8FB569
S11318D080648FBD0895643081F018F4662331F07C
S11318E008956E30B9F06031F9F008958FB58F7DA9
S11318F08FBD8FB58F7E8FBD089581B3806181BB0D
S113190081B38F7D81BB8FB58F7D8FBD8FB5806196
S11319108FBD089581B3806181BB8FB580628FBD17
S11319208FB58F7E8FBD089581B3806181BB8FB5E4
S113193080628FBD8FB580618FBD0895442319F0F7
S11319404130A1F10895633081F018F4662331F039
S113195008956D30B9F06F30F9F008958FB58F7731
S11319608FBD8FB58F7B8FBD089581B3806281BB9E
S113197081B38F7E81BB8FB58F778FBD8FB5806428
S11319808FBD089581B3806281BB8FB580688FBDA0
S11319908FB58F7B8FBD089581B3806281BB8FB576
S11319A080688FBD8FB580648FBD0895643081F0E9
S11319B018F4662331F008956E30B9F06031F9F00F
S11319C008958FB58F7D8FBD8FB58F7E8FBD0895A0
S11319D081B3806181BB81B38F7D81BB8FB58F7DE6
S11319E08FBD8FB580618FBD089581B3806181BB48
S11319F08FB580628FBD8FB58F7E8FBD089581B303
S1131A00806181BB8FB580628FBD8FB580618FBDD2
S1131A100895442319F04130A1F10895633081F011
S1131A2018F4662331F008956D30B9F06F30F9F091
S1131A3008958FB58F778FBD8FB58F7B8FBD089538
S1131A4081B3806281BB81B38F7E81BB8FB58F7779
S1131A508FBD8FB580648FBD089581B3806281BBD3
S1131A608FB580688FBD8FB58F7B8FBD089581B38F
S1131A70806281BB8FB580688FBD8FB580648FBD58
S1131A800895643081F018F4662331F008956E30BF
S1131A90B9F06031F9F008958FB58F7D8FBD8FB5A2
S1131AA08F7E8FBD089581B3806181BB81B38F7DAB
S1131AB081BB8FB58F7D8FBD8FB580618FBD08953C
S1131AC081B3806181BB8FB580628FBD8FB58F7EFE
S1131AD08FBD089581B3806181BB8FB580628FBD56
S1131AE08FB580618FBD089590E0FC013197E73098
S1131AF0F10508F049C0E85BFF4F0C94F40E8EB575
S1131B008B7F8EBD8EB58D7F8EBD8EB581608EBD73
S1131B1008958EB58B7F8EBD8EB582608EBD8EB5D9
S1131B208E7F8EBD08958EB58B7F8EBD8EB58260FF
S1131B308EBD8EB581608EBD08958EB584608EBDD8
S1131B408EB58D7F8EBD8EB58E7F8EBD08958EB57C
S1131B5084608EBD8EB58D7F8EBD8EB581608EBD49
S1131B6008958EB584608EBD8EB582608EBD8EB5AF
S1131B708E7F8EBD08958EB584608EBD8EB58260D5
S1131B808EBD8EB581608EBD08950E94D90D0C94D2
S1131B90BA0E0E94B30E58F00E94AC0E40F029F425
S1131BA05F3F29F00C94A30E51110C94EE0E0C948B
S1131BB0A90E0E94CB0E68F39923B1F3552391F338
S1131BC0951B550BBB27AA2762177307840738F0A8
S1131BD09F5F5F4F220F331F441FAA1FA9F335D005
S1131BE00E2E3AF0E0E832D091505040E695001CB9
S1131BF0CAF72BD0FE2F29D0660F771F881FBB1F73
S1131C00261737074807AB07B0E809F0BB0B802D50
S1131C10BF01FF2793585F4F3AF09E3F510578F07C
S1131C200C94A30E0C94EE0E5F3FE4F3983ED4F3B1
S1131C30869577956795B795F7959F5FC9F7880F50
S1131C40911D9695879597F90895E1E0660F771FA2
S1131C50881FBB1F621773078407BA0720F0621B33
S1131C60730B840BBA0BEE1F88F7E09508950E945E
S1131C70D30E88F09F5798F0B92F9927B751B0F039
S1131C80E1F0660F771F881F991F1AF0BA95C9F7FC
S1131C9014C0B13091F00E94ED0EB1E008950C949F
S1131CA0ED0E672F782F8827B85F39F0B93FCCF352
S1131CB0869577956795B395D9F73EF49095809579
S1131CC0709561957F4F8F4F9F4F0895E89409C099
S1131CD097FB3EF490958095709561957F4F8F4F5B
S1131CE09F4F9923A9F0F92F96E9BB279395F69571
S1131CF0879577956795B795F111F8CFFAF4BB0FEF
S1131D0011F460FF1BC06F5F7F4F8F4F9F4F16C052
S1131D10882311F096E911C0772321F09EE8872FDC
S1131D20762F05C0662371F096E8862F70E060E098
S1131D302AF09A95660F771F881FDAF7880F969511
S1131D40879597F9089597F99F6780E870E060E0B8
S1131D5008959FEF80EC089500240A941616170640
S1131D6018060906089500240A9412161306140688
S1131D7005060895092E0394000C11F4882352F0EB
S1131D80BB0F40F4BF2B11F460FF04C06F5F7F4FA3
S1131D908F4F9F4F089557FD9058440F551F59F08A
S1131DA05F3F71F04795880F97FB991F61F09F3F44
S1131DB079F087950895121613061406551FF2CF6D
S1131DC04695F1DF08C0161617061806991FF1CFBD
S1131DD086957105610508940895E894BB276627E4
S1131DE07727CB0197F90895EE0FFF1F0590F49123
S1131DF0E02D0994A29FB001B39FC001A39F700D71
S1131E00811D1124911DB29F700D811D1124911DFE
S1091E100895F894FFCFD1
S10D1E167468652020646973740089
S9030000FC
